{
  "contractName": "Mdn",
  "abi": [
    {
      "constant": false,
      "inputs": [
        {
          "name": "_c",
          "type": "address"
        }
      ],
      "name": "setToken",
      "outputs": [],
      "payable": false,
      "stateMutability": "nonpayable",
      "type": "function"
    },
    {
      "constant": false,
      "inputs": [],
      "name": "finalize",
      "outputs": [],
      "payable": false,
      "stateMutability": "nonpayable",
      "type": "function"
    },
    {
      "constant": false,
      "inputs": [],
      "name": "acceptOwnership",
      "outputs": [],
      "payable": false,
      "stateMutability": "nonpayable",
      "type": "function"
    },
    {
      "constant": true,
      "inputs": [],
      "name": "owner",
      "outputs": [
        {
          "name": "",
          "type": "address"
        }
      ],
      "payable": false,
      "stateMutability": "view",
      "type": "function"
    },
    {
      "constant": false,
      "inputs": [
        {
          "name": "_value",
          "type": "uint256"
        },
        {
          "name": "_mdn",
          "type": "bytes30"
        }
      ],
      "name": "transferToMdn",
      "outputs": [
        {
          "name": "",
          "type": "bool"
        }
      ],
      "payable": false,
      "stateMutability": "nonpayable",
      "type": "function"
    },
    {
      "constant": false,
      "inputs": [
        {
          "name": "_addr",
          "type": "address"
        },
        {
          "name": "_to",
          "type": "address"
        }
      ],
      "name": "withdrawTokens",
      "outputs": [
        {
          "name": "",
          "type": "bool"
        }
      ],
      "payable": false,
      "stateMutability": "nonpayable",
      "type": "function"
    },
    {
      "constant": false,
      "inputs": [
        {
          "name": "_newOwner",
          "type": "address"
        }
      ],
      "name": "changeOwner",
      "outputs": [],
      "payable": false,
      "stateMutability": "nonpayable",
      "type": "function"
    },
    {
      "constant": false,
      "inputs": [
        {
          "name": "_value",
          "type": "uint256"
        },
        {
          "name": "_mdn",
          "type": "bytes30"
        },
        {
          "name": "_uuid",
          "type": "bytes32"
        }
      ],
      "name": "buyMdnData",
      "outputs": [
        {
          "name": "",
          "type": "bool"
        }
      ],
      "payable": false,
      "stateMutability": "nonpayable",
      "type": "function"
    },
    {
      "constant": true,
      "inputs": [],
      "name": "finalized",
      "outputs": [
        {
          "name": "",
          "type": "bool"
        }
      ],
      "payable": false,
      "stateMutability": "view",
      "type": "function"
    },
    {
      "constant": true,
      "inputs": [],
      "name": "token",
      "outputs": [
        {
          "name": "",
          "type": "address"
        }
      ],
      "payable": false,
      "stateMutability": "view",
      "type": "function"
    },
    {
      "inputs": [],
      "payable": false,
      "stateMutability": "nonpayable",
      "type": "constructor"
    },
    {
      "anonymous": false,
      "inputs": [
        {
          "indexed": true,
          "name": "_from",
          "type": "address"
        },
        {
          "indexed": false,
          "name": "_to",
          "type": "address"
        },
        {
          "indexed": true,
          "name": "_value",
          "type": "uint256"
        },
        {
          "indexed": true,
          "name": "mdn",
          "type": "bytes30"
        }
      ],
      "name": "TransferredToMdn",
      "type": "event"
    },
    {
      "anonymous": false,
      "inputs": [
        {
          "indexed": true,
          "name": "_from",
          "type": "address"
        },
        {
          "indexed": false,
          "name": "_value",
          "type": "uint256"
        },
        {
          "indexed": true,
          "name": "_mdn",
          "type": "bytes30"
        },
        {
          "indexed": false,
          "name": "_uuid",
          "type": "bytes32"
        }
      ],
      "name": "BoughtData",
      "type": "event"
    }
  ],
  "bytecode": "0x6060604052341561000f57600080fd5b336000806101000a81548173ffffffffffffffffffffffffffffffffffffffff021916908373ffffffffffffffffffffffffffffffffffffffff160217905550610b9e8061005e6000396000f3006060604052600436106100a4576000357c0100000000000000000000000000000000000000000000000000000000900463ffffffff168063144fa6d7146100a95780634bb278f3146100e257806379ba5097146100f75780638da5cb5b1461010c5780639a9cb6d814610161578063a522ad25146101aa578063a6f9dae11461021a578063abf1ba9d14610253578063b3f05b97146102a9578063fc0c546a146102d6575b600080fd5b34156100b457600080fd5b6100e0600480803573ffffffffffffffffffffffffffffffffffffffff1690602001909190505061032b565b005b34156100ed57600080fd5b6100f56103e6565b005b341561010257600080fd5b61010a61045d565b005b341561011757600080fd5b61011f610518565b604051808273ffffffffffffffffffffffffffffffffffffffff1673ffffffffffffffffffffffffffffffffffffffff16815260200191505060405180910390f35b341561016c57600080fd5b610190600480803590602001909190803561ffff191690602001909190505061053d565b604051808215151515815260200191505060405180910390f35b34156101b557600080fd5b610200600480803573ffffffffffffffffffffffffffffffffffffffff1690602001909190803573ffffffffffffffffffffffffffffffffffffffff16906020019091905050610703565b604051808215151515815260200191505060405180910390f35b341561022557600080fd5b610251600480803573ffffffffffffffffffffffffffffffffffffffff169060200190919050506108f0565b005b341561025e57600080fd5b61028f600480803590602001909190803561ffff19169060200190919080356000191690602001909190505061098f565b604051808215151515815260200191505060405180910390f35b34156102b457600080fd5b6102bc610b39565b604051808215151515815260200191505060405180910390f35b34156102e157600080fd5b6102e9610b4c565b604051808273ffffffffffffffffffffffffffffffffffffffff1673ffffffffffffffffffffffffffffffffffffffff16815260200191505060405180910390f35b6000809054906101000a900473ffffffffffffffffffffffffffffffffffffffff1673ffffffffffffffffffffffffffffffffffffffff163373ffffffffffffffffffffffffffffffffffffffff1614151561038657600080fd5b600160149054906101000a900460ff161515156103a257600080fd5b80600260006101000a81548173ffffffffffffffffffffffffffffffffffffffff021916908373ffffffffffffffffffffffffffffffffffffffff16021790555050565b6000809054906101000a900473ffffffffffffffffffffffffffffffffffffffff1673ffffffffffffffffffffffffffffffffffffffff163373ffffffffffffffffffffffffffffffffffffffff1614151561044157600080fd5b60018060146101000a81548160ff021916908315150217905550565b600160009054906101000a900473ffffffffffffffffffffffffffffffffffffffff1673ffffffffffffffffffffffffffffffffffffffff163373ffffffffffffffffffffffffffffffffffffffff16141561051657600160009054906101000a900473ffffffffffffffffffffffffffffffffffffffff166000806101000a81548173ffffffffffffffffffffffffffffffffffffffff021916908373ffffffffffffffffffffffffffffffffffffffff1602179055505b565b6000809054906101000a900473ffffffffffffffffffffffffffffffffffffffff1681565b6000808311151561054d57600080fd5b600260009054906101000a900473ffffffffffffffffffffffffffffffffffffffff1673ffffffffffffffffffffffffffffffffffffffff166323b872dd3330866000604051602001526040518463ffffffff167c0100000000000000000000000000000000000000000000000000000000028152600401808473ffffffffffffffffffffffffffffffffffffffff1673ffffffffffffffffffffffffffffffffffffffff1681526020018373ffffffffffffffffffffffffffffffffffffffff1673ffffffffffffffffffffffffffffffffffffffff1681526020018281526020019350505050602060405180830381600087803b151561064e57600080fd5b6102c65a03f1151561065f57600080fd5b50505060405180519050156106f8578161ffff1916833373ffffffffffffffffffffffffffffffffffffffff167fb2ec642ecc2de8fc4cb2c72ed7df1074b056dd469d340fa700c92f4485d9c2e430604051808273ffffffffffffffffffffffffffffffffffffffff1673ffffffffffffffffffffffffffffffffffffffff16815260200191505060405180910390a4600190506106fd565b600090505b92915050565b6000806000809054906101000a900473ffffffffffffffffffffffffffffffffffffffff1673ffffffffffffffffffffffffffffffffffffffff163373ffffffffffffffffffffffffffffffffffffffff1614151561076157600080fd5b8390508073ffffffffffffffffffffffffffffffffffffffff1663a9059cbb848373ffffffffffffffffffffffffffffffffffffffff166370a08231306000604051602001526040518263ffffffff167c0100000000000000000000000000000000000000000000000000000000028152600401808273ffffffffffffffffffffffffffffffffffffffff1673ffffffffffffffffffffffffffffffffffffffff168152602001915050602060405180830381600087803b151561082457600080fd5b6102c65a03f1151561083557600080fd5b505050604051805190506000604051602001526040518363ffffffff167c0100000000000000000000000000000000000000000000000000000000028152600401808373ffffffffffffffffffffffffffffffffffffffff1673ffffffffffffffffffffffffffffffffffffffff16815260200182815260200192505050602060405180830381600087803b15156108cc57600080fd5b6102c65a03f115156108dd57600080fd5b5050506040518051905091505092915050565b6000809054906101000a900473ffffffffffffffffffffffffffffffffffffffff1673ffffffffffffffffffffffffffffffffffffffff163373ffffffffffffffffffffffffffffffffffffffff1614151561094b57600080fd5b80600160006101000a81548173ffffffffffffffffffffffffffffffffffffffff021916908373ffffffffffffffffffffffffffffffffffffffff16021790555050565b6000808411151561099f57600080fd5b600260009054906101000a900473ffffffffffffffffffffffffffffffffffffffff1673ffffffffffffffffffffffffffffffffffffffff166323b872dd3330876000604051602001526040518463ffffffff167c0100000000000000000000000000000000000000000000000000000000028152600401808473ffffffffffffffffffffffffffffffffffffffff1673ffffffffffffffffffffffffffffffffffffffff1681526020018373ffffffffffffffffffffffffffffffffffffffff1673ffffffffffffffffffffffffffffffffffffffff1681526020018281526020019350505050602060405180830381600087803b1515610aa057600080fd5b6102c65a03f11515610ab157600080fd5b5050506040518051905015610b2d578261ffff19163373ffffffffffffffffffffffffffffffffffffffff167f64c38184f090fa9e22b3f1bdb509cfd84f74ab391a133655267c89550fd2fe9386856040518083815260200182600019166000191681526020019250505060405180910390a360019050610b32565b600090505b9392505050565b600160149054906101000a900460ff1681565b600260009054906101000a900473ffffffffffffffffffffffffffffffffffffffff16815600a165627a7a723058209e5a68f38bb07489bd9ff946ac6a46ee5b0feae97d63f499bfa95ac39153b34f0029",
  "source": "pragma solidity ^0.4.10;\n\nimport \"./Token.sol\";\n\ncontract Mdn is Owned, SafeMath, Finalizable {\n\n    Token public token;\n\n    event TransferredToMdn(address indexed _from, address _to, uint256 indexed _value, bytes30 indexed mdn);\n\n    event BoughtData(address indexed _from, uint256 _value, bytes30 indexed _mdn, bytes32 _uuid);\n\n    function Mdn () {\n    }\n\n    function setToken(address _c) onlyOwner notFinalized {\n        token = Token(_c);\n    }\n\n    function transferToMdn(uint256 _value, bytes30 _mdn) returns (bool) {\n        require(_value > 0);\n\n        if (token.transferFrom(msg.sender, this, _value)) {\n\n            TransferredToMdn(msg.sender, this, _value, _mdn);\n            return true;\n        }\n        return false;\n    }\n\n    function buyMdnData(uint256 _value, bytes30 _mdn, bytes32 _uuid) returns (bool) {\n        require(_value > 0);\n\n        if (token.transferFrom(msg.sender, this, _value)) {\n            BoughtData(msg.sender, _value, _mdn, _uuid);\n            return true;\n        }\n        return false;\n    }\n\n    function withdrawTokens(address _addr, address _to) external onlyOwner returns (bool) {\n        IToken itoken = IToken(_addr);\n        return itoken.transfer(_to, itoken.balanceOf(this));\n    }\n\n}\n",
  "sourcePath": "/Users/areamac/git/airfox/airtoken-dapp/contracts/Mdn.sol",
  "compiler": {
    "name": "solc",
    "version": "0.4.18+commit.9cf6e910.Emscripten.clang"
  },
  "schemaVersion": "1.0.1",
  "updatedAt": "2018-01-24T20:22:26.064Z"
}